:020000040800F2
:1000000000000220D5050008F1020008F3020008F4
:10001000F5020008F7020008F902000800000000DD
:10002000000000000000000000000000FB020008CB
:10003000FD02000800000000FF02000801030008A4
:1000400021060008210600082106000821060008F4
:100050002106000821060008C50200082106000844
:1000600021060008210600082106000821060008D4
:1000700021060008210600082106000821060008C4
:1000800021060008210600082106000800000000E3
:100090000000000000000000000000002106000831
:1000A0002106000821060008210600082106000894
:1000B0002106000821060008210600082106000884
:1000C0002106000821060008210600082106000874
:1000D0002106000821060008210600080000000093
:1000E0002106000821060008210600080000000083
:1000F00000000000000000000000000021060008D1
:100100000000000021060008210600082106000862
:1001100000000000000000000000000000000000DF
:100120002106000821060008210600082106000813
:100130002106000800000000000000000000000090
:100140000000000000000000000000002106000880
:1001500021060008210600082106000821060008E3
:100160002106000821060008000000000000000031
:10017000000000000000000000000000000000007F
:100180000000000021060008000000000000000040
:08019000210600082106000809
:1001980010B5054C237833B9044B13B10448AFF3B9
:1001A80000800123237010BD000000200000000023
:1001B8006C06000808B5034B1BB103490348AFF3AD
:1001C800008008BD00000000040000206C06000844
:1001D800024A136843F089031360704730380240BD
:1001E80070B586B04FF47043009301260196002441
:1001F80002940394022504956946074800F07DF8A7
:10020800009601940294039404956946034800F00B
:1002180074F806B070BD00BF000C02400000024038
:10022800114A136843F0010313600C32136843F05A
:1002380001031360A2F20442136823F00F03136052
:100248000A490B684FF6FF021A40094B13430B602B
:10025800084A136823F0FF031360A2F5407213687D
:1002680043F0400313607047003C01400CED00E090
:100278000007FA0500E400E000B585B0002302930A
:1002880004220192009302230122C821082000F0D1
:100298007BF8FFF79DFF00F061F9FFF7A1FFFFF77B
:1002A800BFFF4FF40041044800F069F84FF47A703A
:1002B80000F07CF9F5E700BF000C024008B54FF4E8
:1002C8008051064800F05BF8054A136823F04003A4
:1002D800044901200860136008BD00BF000C0240FB
:1002E80080E200E0143C01407047FEE7FEE7FEE7CD
:1002F800FEE7704770477047704700230F2B3DD8C3
:10030800F0B410E000F12006356803F0070294000D
:100318000F22A24025EA02054A69A2402A43326018
:1003280001330F2B28D80A6801249C402242F7D0B9
:1003380005685E000322B240D24305EA02074D6811
:10034800B5403D430560456825EA04048D689D4035
:1003580025434560C56802EA0504CD68B5402543D4
:10036800C560846822400C69B44022438260072B30
:10037800C8D900F12406C7E7F0BC70477047436945
:10038800594041617047000030B482B06D4D2C680F
:100398000194019C44F470040194019C2C606A4C03
:1003A8000025256038344FF480452560043C4FF023
:1003B80080552560654D2C6824F440440194019CC7
:1003C80044F440440194019C2C6005F5E4352C6804
:1003D80024F480240194019C0194019C2C6024F451
:1003E80080340194019C44F480340194019C2C6075
:1003F800FF240094009C013C0094554C246814F49C
:10040800003F02D1009D002DF4D124F080740194A6
:10041800019D4F4C256040F6FF740094009C013C00
:1004280000944B4C246814F0007F02D0009C002CF0
:10043800F4D1484C03252560A4F57F74256825F080
:100448003F050195019D284301900198206020F403
:10045800FF4020F040000190019840EA811101918D
:100468000199216021F440310191019941EA024248
:100478000192019A226036490A6822F0807201923C
:10048800019A42F080720192019A0A604FF6FF7257
:100498000092009A013A00922D4A126812F0007FE9
:1004A80002D1009A002AF4D12B4A116821F0F001F8
:1004B80001910199049841EA001101910199116093
:1004C80021F4E0510191019941F4E0510191019920
:1004D800116021F460410191019941F46041019159
:1004E8000199116021F003010191019919430191CA
:1004F800019911606FF07F420092009A013A0092D0
:10050800154A126802F00C01B1EB830F02D0009972
:100518000029F2D122F4E0520192019B059A43EAA4
:1005280082230193019B0C4A136023F460430193D7
:10053800019B069943EA81230193019B136002B052
:1005480030BC704788ED00E00C3802400070004075
:1005580000380240003C024008380240054A13684F
:1005680023F0050343F004031360034B00221A60D1
:10057800704700BF10E000E018E000E0054B18608D
:10058800043300221A60044A136843F0010313601D
:10059800704700BF14E000E010E000E0024B58880C
:1005A80000F00100704700BF10E000E010B5400007
:1005B80008E04CF24F30FFF7E1FFFFF7EFFF0028AC
:1005C800FBD02046441E0028F3D110BDDFF830D000
:1005D800002103E00B4B5B58435004310A480B4B96
:1005E80042189A42F6D30A4A02E0002342F8043B32
:1005F800084B9A42F9D300F011F8FFF73DFE704717
:10060800000002208C0600080000002000000020E6
:10061800000000201C000020FEE7000070B50D4E11
:100628000D4CA41BA4100025A54209D10B4E0C4C5F
:1006380000F018F8A41BA4100025A54205D170BD30
:1006480056F8253098470135EEE756F82530984793
:100658000135F2E7840600088406000884060008CD
:1006680088060008F8B500BFF8BC08BC9E4670476D
:0C067800F8B500BFF8BC08BC9E467047F7
:04068400BD010008AC
:0406880099010008CC
:04000005080005D515
:00000001FF
