:020000040800F2
:10000000000002203D0600081D0300081F03000831
:100010002103000823030008250300080000000056
:10002000000000000000000000000000270300089E
:1000300029030008000000002B0300082D0300081E
:100040008906000889060008890600088906000854
:100050008906000889060008890600088906000844
:100060008906000889060008890600088906000834
:100070008906000889060008890600088906000824
:1000800089060008890600088906000800000000AB
:1000900000000000000000000000000089060008C9
:1000A00089060008890600088906000889060008F4
:1000B00091020008890600088906000889060008E0
:1000C00089060008890600088906000889060008D4
:1000D000890600088906000889060008000000005B
:1000E000890600088906000889060008000000004B
:1000F0000000000000000000000000008906000869
:10010000000000008906000889060008890600082A
:1001100000000000000000000000000000000000DF
:100120008906000889060008890600088906000873
:100130008906000800000000000000000000000028
:100140000000000000000000000000008906000818
:100150008906000889060008890600088906000843
:100160008906000889060008000000000000000061
:10017000000000000000000000000000000000007F
:1001800000000000890600080000000000000000D8
:08019000890600088906000839
:1001980010B5054C237833B9044B13B10448AFF3B9
:1001A80000800123237010BD000000200000000023
:1001B800D406000808B5034B1BB103490348AFF345
:1001C800008008BD0000000004000020D4060008DC
:1001D800054A136843F0890313601032136843F02B
:1001E80001031360704700BF3038024070B586B015
:1001F8004FF4704300930125019500240294039461
:10020800022604966946074800F0A7F8009501966B
:1002180002940394049605956946034800F09DF8F6
:1002280006B070BD000C02400000024008B5002175
:100238001C2000F078F81C2000F082F808BD00B5FA
:1002480085B0002302930422019200930223012225
:10025800C821082000F0C8F8FFF7BAFF00F0AEF98F
:10026800FFF7C4FF02214FF0FF3000F0B7F90F216C
:100278004FF0804000F0C9F9FFF7D8FF4FF08040F9
:1002880000F0BEF9FEE7000000B583B04FF47041FE
:10029800194800F0A4F8194B1B6803F40073019384
:1002A800019BB3F5007F0AD0154B1A68154B1A60ED
:1002B800154B4FF080521A6003B05DF804FB104BE9
:1002C8001B68124A13600F4A1268934210D29B1A95
:1002D800013B0F4A1360094A136823F40073019322
:1002E800019B13600023094A1360064A1360DFE785
:1002F8009B1A074A1360EEE7000C0240100000400A
:10030800340000402400002080E200E020000020AB
:100318001C0000207047FEE7FEE7FEE7FEE7704797
:10032800704770477047800800F1605000F56450CE
:1003380080000368090101F47F6119430160704777
:10034800430903F1382340339B00196800F01F026A
:100358000120904008431860704700230F2B3DD8B8
:10036800F0B410E000F12006356803F007029400AD
:100378000F22A24025EA02054A69A2402A433260B8
:1003880001330F2B28D80A6801249C402242F7D059
:1003980005685E000322B240D24305EA02074D68B1
:1003A800B5403D430560456825EA04048D689D40D5
:1003B80025434560C56802EA0504CD68B540254374
:1003C800C560846822400C69B44022438260072BD0
:1003D800C8D900F12406C7E7F0BC704770474369E5
:1003E800594041617047000030B482B06D4D2C68AF
:1003F8000194019C44F470040194019C2C606A4CA3
:100408000025256038344FF480452560043C4FF0C2
:1004180080552560654D2C6824F440440194019C66
:1004280044F440440194019C2C6005F5E4352C68A3
:1004380024F480240194019C0194019C2C6024F4F0
:1004480080340194019C44F480340194019C2C6014
:10045800FF240094009C013C0094554C246814F43B
:10046800003F02D1009D002DF4D124F08074019446
:10047800019D4F4C256040F6FF740094009C013CA0
:1004880000944B4C246814F0007F02D0009C002C90
:10049800F4D1484C03252560A4F57F74256825F020
:1004A8003F050195019D284301900198206020F4A3
:1004B800FF4020F040000190019840EA811101912D
:1004C8000199216021F440310191019941EA0242E8
:1004D8000192019A226036490A6822F080720192DC
:1004E800019A42F080720192019A0A604FF6FF72F7
:1004F8000092009A013A00922D4A126812F0007F89
:1005080002D1009A002AF4D12B4A116821F0F00197
:1005180001910199049841EA001101910199116032
:1005280021F4E0510191019941F4E05101910199BF
:10053800116021F460410191019941F460410191F8
:100548000199116021F00301019101991943019169
:10055800019911606FF07F420092009A013A00926F
:10056800154A126802F00C01B1EB830F02D0009912
:100578000029F2D122F4E0520192019B059A43EA44
:1005880082230193019B0C4A136023F46043019377
:10059800019B069943EA81230193019B136002B0F2
:1005A80030BC704788ED00E00C3802400070004015
:1005B80000380240003C024008380240054A1368EF
:1005C80023F0050343F004031360034B00221A6071
:1005D800704700BF10E000E018E000E04FF08042F4
:1005E800136823F45C731360044B1860043B1960B0
:1005F8001432136843F00103136070472C00004065
:10060800036843F0010303607047836923F0030321
:1006180043F00103026A43EA011323F00C038361E8
:1006280022F00F0242F001020262C36843F00203A3
:10063800C3607047DFF830D0002103E00B4B5B58F4
:10064800435004310A480B4B42189A42F6D30A4ADF
:1006580002E0002342F8043B084B9A42F9D300F029
:1006680011F8FFF7ECFD704700000220F4060008BF
:1006780000000020000000200000002028000020CA
:10068800FEE7000070B50D4E0D4CA41BA41000250C
:10069800A54209D10B4E0C4C00F018F8A41BA4106D
:1006A8000025A54205D170BD56F82530984701357B
:1006B800EEE756F8253098470135F2E7EC060008D2
:1006C800EC060008EC060008F0060008F8B500BFC4
:1006D800F8BC08BC9E467047F8B500BFF8BC08BC1B
:0406E8009E46704773
:0406EC00BD01000844
:0406F0009901000864
:040000050800063DAC
:00000001FF
